{
  "_format": "hh-sol-artifact-1",
  "contractName": "TradeVault",
  "sourceName": "contracts/TradingVault.sol",
  "abi": [
    {
      "inputs": [
        {
          "internalType": "address",
          "name": "_usdc",
          "type": "address"
        },
        {
          "internalType": "address",
          "name": "_weth",
          "type": "address"
        },
        {
          "internalType": "address",
          "name": "_aerodrome",
          "type": "address"
        },
        {
          "internalType": "address",
          "name": "_ethUsdPriceFeed",
          "type": "address"
        }
      ],
      "stateMutability": "nonpayable",
      "type": "constructor"
    },
    {
      "inputs": [
        {
          "internalType": "address",
          "name": "target",
          "type": "address"
        }
      ],
      "name": "AddressEmptyCode",
      "type": "error"
    },
    {
      "inputs": [
        {
          "internalType": "address",
          "name": "account",
          "type": "address"
        }
      ],
      "name": "AddressInsufficientBalance",
      "type": "error"
    },
    {
      "inputs": [],
      "name": "EnforcedPause",
      "type": "error"
    },
    {
      "inputs": [],
      "name": "ExpectedPause",
      "type": "error"
    },
    {
      "inputs": [],
      "name": "FailedInnerCall",
      "type": "error"
    },
    {
      "inputs": [
        {
          "internalType": "address",
          "name": "owner",
          "type": "address"
        }
      ],
      "name": "OwnableInvalidOwner",
      "type": "error"
    },
    {
      "inputs": [
        {
          "internalType": "address",
          "name": "account",
          "type": "address"
        }
      ],
      "name": "OwnableUnauthorizedAccount",
      "type": "error"
    },
    {
      "inputs": [
        {
          "internalType": "address",
          "name": "token",
          "type": "address"
        }
      ],
      "name": "SafeERC20FailedOperation",
      "type": "error"
    },
    {
      "anonymous": false,
      "inputs": [
        {
          "indexed": false,
          "internalType": "uint256",
          "name": "amount",
          "type": "uint256"
        }
      ],
      "name": "Deposit",
      "type": "event"
    },
    {
      "anonymous": false,
      "inputs": [
        {
          "indexed": true,
          "internalType": "address",
          "name": "previousOwner",
          "type": "address"
        },
        {
          "indexed": true,
          "internalType": "address",
          "name": "newOwner",
          "type": "address"
        }
      ],
      "name": "OwnershipTransferred",
      "type": "event"
    },
    {
      "anonymous": false,
      "inputs": [
        {
          "indexed": false,
          "internalType": "address",
          "name": "account",
          "type": "address"
        }
      ],
      "name": "Paused",
      "type": "event"
    },
    {
      "anonymous": false,
      "inputs": [
        {
          "indexed": false,
          "internalType": "uint256",
          "name": "wethAmount",
          "type": "uint256"
        },
        {
          "indexed": false,
          "internalType": "uint256",
          "name": "usdcAmount",
          "type": "uint256"
        }
      ],
      "name": "SwappedToUSDC",
      "type": "event"
    },
    {
      "anonymous": false,
      "inputs": [
        {
          "indexed": false,
          "internalType": "uint256",
          "name": "usdcAmount",
          "type": "uint256"
        },
        {
          "indexed": false,
          "internalType": "uint256",
          "name": "wethAmount",
          "type": "uint256"
        }
      ],
      "name": "SwappedToWETH",
      "type": "event"
    },
    {
      "anonymous": false,
      "inputs": [
        {
          "indexed": false,
          "internalType": "address",
          "name": "account",
          "type": "address"
        }
      ],
      "name": "Unpaused",
      "type": "event"
    },
    {
      "anonymous": false,
      "inputs": [
        {
          "indexed": false,
          "internalType": "uint256",
          "name": "amount",
          "type": "uint256"
        }
      ],
      "name": "Withdrawal",
      "type": "event"
    },
    {
      "inputs": [],
      "name": "SLIPPAGE_TOLERANCE",
      "outputs": [
        {
          "internalType": "uint256",
          "name": "",
          "type": "uint256"
        }
      ],
      "stateMutability": "view",
      "type": "function"
    },
    {
      "inputs": [],
      "name": "USDC",
      "outputs": [
        {
          "internalType": "contract IERC20",
          "name": "",
          "type": "address"
        }
      ],
      "stateMutability": "view",
      "type": "function"
    },
    {
      "inputs": [],
      "name": "WETH",
      "outputs": [
        {
          "internalType": "contract IERC20",
          "name": "",
          "type": "address"
        }
      ],
      "stateMutability": "view",
      "type": "function"
    },
    {
      "inputs": [],
      "name": "aerodrome",
      "outputs": [
        {
          "internalType": "contract IAerodrome",
          "name": "",
          "type": "address"
        }
      ],
      "stateMutability": "view",
      "type": "function"
    },
    {
      "inputs": [
        {
          "internalType": "uint256",
          "name": "wethAmount",
          "type": "uint256"
        }
      ],
      "name": "calculateMinUSDCOut",
      "outputs": [
        {
          "internalType": "uint256",
          "name": "",
          "type": "uint256"
        }
      ],
      "stateMutability": "view",
      "type": "function"
    },
    {
      "inputs": [
        {
          "internalType": "uint256",
          "name": "usdcAmount",
          "type": "uint256"
        }
      ],
      "name": "calculateMinWETHOut",
      "outputs": [
        {
          "internalType": "uint256",
          "name": "",
          "type": "uint256"
        }
      ],
      "stateMutability": "view",
      "type": "function"
    },
    {
      "inputs": [
        {
          "internalType": "uint256",
          "name": "amount",
          "type": "uint256"
        }
      ],
      "name": "deposit",
      "outputs": [],
      "stateMutability": "nonpayable",
      "type": "function"
    },
    {
      "inputs": [],
      "name": "ethUsdPriceFeed",
      "outputs": [
        {
          "internalType": "contract AggregatorV3Interface",
          "name": "",
          "type": "address"
        }
      ],
      "stateMutability": "view",
      "type": "function"
    },
    {
      "inputs": [],
      "name": "owner",
      "outputs": [
        {
          "internalType": "address",
          "name": "",
          "type": "address"
        }
      ],
      "stateMutability": "view",
      "type": "function"
    },
    {
      "inputs": [],
      "name": "pause",
      "outputs": [],
      "stateMutability": "nonpayable",
      "type": "function"
    },
    {
      "inputs": [],
      "name": "paused",
      "outputs": [
        {
          "internalType": "bool",
          "name": "",
          "type": "bool"
        }
      ],
      "stateMutability": "view",
      "type": "function"
    },
    {
      "inputs": [],
      "name": "renounceOwnership",
      "outputs": [],
      "stateMutability": "nonpayable",
      "type": "function"
    },
    {
      "inputs": [],
      "name": "swapAllUSDCToWETH",
      "outputs": [],
      "stateMutability": "nonpayable",
      "type": "function"
    },
    {
      "inputs": [],
      "name": "swapAllWETHToUSDC",
      "outputs": [],
      "stateMutability": "nonpayable",
      "type": "function"
    },
    {
      "inputs": [
        {
          "internalType": "address",
          "name": "newOwner",
          "type": "address"
        }
      ],
      "name": "transferOwnership",
      "outputs": [],
      "stateMutability": "nonpayable",
      "type": "function"
    },
    {
      "inputs": [],
      "name": "unpause",
      "outputs": [],
      "stateMutability": "nonpayable",
      "type": "function"
    },
    {
      "inputs": [],
      "name": "withdrawAll",
      "outputs": [],
      "stateMutability": "nonpayable",
      "type": "function"
    }
  ],
  "bytecode": "0x6101006040523480156200001257600080fd5b50604051620032d2380380620032d28339818101604052810190620000389190620004aa565b33600073ffffffffffffffffffffffffffffffffffffffff168173ffffffffffffffffffffffffffffffffffffffff1603620000ae5760006040517f1e4fbdf7000000000000000000000000000000000000000000000000000000008152600401620000a591906200052d565b60405180910390fd5b620000bf816200037c60201b60201c565b5060008060146101000a81548160ff021916908315150217905550600073ffffffffffffffffffffffffffffffffffffffff168473ffffffffffffffffffffffffffffffffffffffff16036200014c576040517f08c379a00000000000000000000000000000000000000000000000000000000081526004016200014390620005ab565b60405180910390fd5b600073ffffffffffffffffffffffffffffffffffffffff168373ffffffffffffffffffffffffffffffffffffffff1603620001be576040517f08c379a0000000000000000000000000000000000000000000000000000000008152600401620001b5906200061d565b60405180910390fd5b600073ffffffffffffffffffffffffffffffffffffffff168273ffffffffffffffffffffffffffffffffffffffff160362000230576040517f08c379a000000000000000000000000000000000000000000000000000000000815260040162000227906200068f565b60405180910390fd5b600073ffffffffffffffffffffffffffffffffffffffff168173ffffffffffffffffffffffffffffffffffffffff1603620002a2576040517f08c379a0000000000000000000000000000000000000000000000000000000008152600401620002999062000727565b60405180910390fd5b8373ffffffffffffffffffffffffffffffffffffffff1660808173ffffffffffffffffffffffffffffffffffffffff16815250508273ffffffffffffffffffffffffffffffffffffffff1660a08173ffffffffffffffffffffffffffffffffffffffff16815250508173ffffffffffffffffffffffffffffffffffffffff1660c08173ffffffffffffffffffffffffffffffffffffffff16815250508073ffffffffffffffffffffffffffffffffffffffff1660e08173ffffffffffffffffffffffffffffffffffffffff16815250505050505062000749565b60008060009054906101000a900473ffffffffffffffffffffffffffffffffffffffff169050816000806101000a81548173ffffffffffffffffffffffffffffffffffffffff021916908373ffffffffffffffffffffffffffffffffffffffff1602179055508173ffffffffffffffffffffffffffffffffffffffff168173ffffffffffffffffffffffffffffffffffffffff167f8be0079c531659141344cd1fd0a4f28419497f9722a3daafe3b4186f6b6457e060405160405180910390a35050565b600080fd5b600073ffffffffffffffffffffffffffffffffffffffff82169050919050565b6000620004728262000445565b9050919050565b620004848162000465565b81146200049057600080fd5b50565b600081519050620004a48162000479565b92915050565b60008060008060808587031215620004c757620004c662000440565b5b6000620004d78782880162000493565b9450506020620004ea8782880162000493565b9350506040620004fd8782880162000493565b9250506060620005108782880162000493565b91505092959194509250565b620005278162000465565b82525050565b60006020820190506200054460008301846200051c565b92915050565b600082825260208201905092915050565b7f496e76616c696420555344432061646472657373000000000000000000000000600082015250565b6000620005936014836200054a565b9150620005a0826200055b565b602082019050919050565b60006020820190508181036000830152620005c68162000584565b9050919050565b7f496e76616c696420574554482061646472657373000000000000000000000000600082015250565b6000620006056014836200054a565b91506200061282620005cd565b602082019050919050565b600060208201905081810360008301526200063881620005f6565b9050919050565b7f496e76616c6964204165726f64726f6d65206164647265737300000000000000600082015250565b6000620006776019836200054a565b915062000684826200063f565b602082019050919050565b60006020820190508181036000830152620006aa8162000668565b9050919050565b7f496e76616c6964204554482f555344207072696365206665656420616464726560008201527f7373000000000000000000000000000000000000000000000000000000000000602082015250565b60006200070f6022836200054a565b91506200071c82620006b1565b604082019050919050565b60006020820190508181036000830152620007428162000700565b9050919050565b60805160a05160c05160e051612ad8620007fa600039600081816102ee015281816109e80152610c150152600081816102b8015281816104210152818161059a01528181610e350152610fae01526000818161033f01528181610443015281816104ed01528181610b140152610f3d01526000818161052901528181610834015281816109180152818161099801528181610b9101528181610d5301528181610e570152610f010152612ad86000f3fe608060405234801561001057600080fd5b506004361061010b5760003560e01c8063853828b6116100a2578063ad5c464811610071578063ad5c464814610226578063b6b55f2514610244578063bff6049b14610260578063da55446914610290578063f2fde38b1461029a5761010b565b8063853828b6146101b057806389a30271146101ba5780638da5cb5b146101d8578063976cacdf146101f65761010b565b80635c975abb116100de5780635c975abb146101745780635e88ede214610192578063715018a61461019c5780638456cb59146101a65761010b565b806337cd77d3146101105780633f4ba83a1461012e57806342f6fb29146101385780634c20378614610156575b600080fd5b6101186102b6565b6040516101259190611bc4565b60405180910390f35b6101366102da565b005b6101406102ec565b60405161014d9190611c00565b60405180910390f35b61015e610310565b60405161016b9190611c34565b60405180910390f35b61017c610315565b6040516101899190611c6a565b60405180910390f35b61019a61032b565b005b6101a4610802565b005b6101ae610816565b005b6101b8610828565b005b6101c2610996565b6040516101cf9190611ca6565b60405180910390f35b6101e06109ba565b6040516101ed9190611ce2565b60405180910390f35b610210600480360381019061020b9190611d3d565b6109e3565b60405161021d9190611c34565b60405180910390f35b61022e610b12565b60405161023b9190611ca6565b60405180910390f35b61025e60048036038101906102599190611d3d565b610b36565b005b61027a60048036038101906102759190611d3d565b610c10565b6040516102879190611c34565b60405180910390f35b610298610d3f565b005b6102b460048036038101906102af9190611d96565b611216565b005b7f000000000000000000000000000000000000000000000000000000000000000081565b6102e261129c565b6102ea611323565b565b7f000000000000000000000000000000000000000000000000000000000000000081565b603281565b60008060149054906101000a900460ff16905090565b61033361129c565b61033b611385565b60007f000000000000000000000000000000000000000000000000000000000000000073ffffffffffffffffffffffffffffffffffffffff166370a08231306040518263ffffffff1660e01b81526004016103969190611ce2565b602060405180830381865afa1580156103b3573d6000803e3d6000fd5b505050506040513d601f19601f820116820180604052508101906103d79190611dd8565b90506000811161041c576040517f08c379a000000000000000000000000000000000000000000000000000000000815260040161041390611e62565b60405180910390fd5b6104877f0000000000000000000000000000000000000000000000000000000000000000827f000000000000000000000000000000000000000000000000000000000000000073ffffffffffffffffffffffffffffffffffffffff166113c69092919063ffffffff16565b6000600167ffffffffffffffff8111156104a4576104a3611e82565b5b6040519080825280602002602001820160405280156104dd57816020015b6104ca611af6565b8152602001906001900390816104c25790505b50905060405180606001604052807f000000000000000000000000000000000000000000000000000000000000000073ffffffffffffffffffffffffffffffffffffffff1681526020017f000000000000000000000000000000000000000000000000000000000000000073ffffffffffffffffffffffffffffffffffffffff168152602001600015158152508160008151811061057e5761057d611eb1565b5b60200260200101819052506000610594836109e3565b905060607f000000000000000000000000000000000000000000000000000000000000000073ffffffffffffffffffffffffffffffffffffffff1663f41766d885848630610384426105e69190611f0f565b6040518663ffffffff1660e01b8152600401610606959493929190612052565b6000604051808303816000875af192505050801561064757506040513d6000823e3d601f19601f8201168201806040525081019061064491906121d6565b60015b61070b5761065361222c565b806308c379a0036106ce575061066761224e565b8061067257506106d0565b80604051602001610683919061239b565b6040516020818303038152906040526040517f08c379a00000000000000000000000000000000000000000000000000000000081526004016106c591906123f6565b60405180910390fd5b505b6040517f08c379a000000000000000000000000000000000000000000000000000000000815260040161070290612464565b60405180910390fd5b809150506000815111610753576040517f08c379a000000000000000000000000000000000000000000000000000000000815260040161074a906124d0565b60405180910390fd5b6000816001835161076491906124f0565b8151811061077557610774611eb1565b5b60200260200101519050828110156107c2576040517f08c379a00000000000000000000000000000000000000000000000000000000081526004016107b990612570565b60405180910390fd5b7ffc9d87bf27a62e19ce1564cd776d37b6bff33855d43b757168d63d9ffb3f395585826040516107f3929190612590565b60405180910390a15050505050565b61080a61129c565b6108146000611462565b565b61081e61129c565b610826611526565b565b61083061129c565b60007f000000000000000000000000000000000000000000000000000000000000000073ffffffffffffffffffffffffffffffffffffffff166370a08231306040518263ffffffff1660e01b815260040161088b9190611ce2565b602060405180830381865afa1580156108a8573d6000803e3d6000fd5b505050506040513d601f19601f820116820180604052508101906108cc9190611dd8565b905060008111610911576040517f08c379a000000000000000000000000000000000000000000000000000000000815260040161090890612605565b60405180910390fd5b61095c33827f000000000000000000000000000000000000000000000000000000000000000073ffffffffffffffffffffffffffffffffffffffff166115899092919063ffffffff16565b7f4e70a604b23a8edee2b1d0a656e9b9c00b73ad8bb1afc2c59381ee9f69197de78160405161098b9190611c34565b60405180910390a150565b7f000000000000000000000000000000000000000000000000000000000000000081565b60008060009054906101000a900473ffffffffffffffffffffffffffffffffffffffff16905090565b6000807f000000000000000000000000000000000000000000000000000000000000000073ffffffffffffffffffffffffffffffffffffffff1663feaf968c6040518163ffffffff1660e01b815260040160a060405180830381865afa158015610a51573d6000803e3d6000fd5b505050506040513d601f19601f82011682018060405250810190610a75919061269d565b50505091505060008113610abe576040517f08c379a0000000000000000000000000000000000000000000000000000000008152600401610ab590612764565b60405180910390fd5b600068056bc75e2d631000008285610ad69190612784565b610ae091906127f5565b90506127106032612710610af491906124f0565b82610aff9190612784565b610b0991906127f5565b92505050919050565b7f000000000000000000000000000000000000000000000000000000000000000081565b610b3e61129c565b610b46611385565b60008111610b89576040517f08c379a0000000000000000000000000000000000000000000000000000000008152600401610b8090612872565b60405180910390fd5b610bd63330837f000000000000000000000000000000000000000000000000000000000000000073ffffffffffffffffffffffffffffffffffffffff16611608909392919063ffffffff16565b7f4d6ce1e535dbade1c23defba91e23b8f791ce5edc0cc320257a2b364e4e3842681604051610c059190611c34565b60405180910390a150565b6000807f000000000000000000000000000000000000000000000000000000000000000073ffffffffffffffffffffffffffffffffffffffff1663feaf968c6040518163ffffffff1660e01b815260040160a060405180830381865afa158015610c7e573d6000803e3d6000fd5b505050506040513d601f19601f82011682018060405250810190610ca2919061269d565b50505091505060008113610ceb576040517f08c379a0000000000000000000000000000000000000000000000000000000008152600401610ce290612764565b60405180910390fd5b60008168056bc75e2d6310000085610d039190612784565b610d0d91906127f5565b90506127106032612710610d2191906124f0565b82610d2c9190612784565b610d3691906127f5565b92505050919050565b610d4761129c565b610d4f611385565b60007f000000000000000000000000000000000000000000000000000000000000000073ffffffffffffffffffffffffffffffffffffffff166370a08231306040518263ffffffff1660e01b8152600401610daa9190611ce2565b602060405180830381865afa158015610dc7573d6000803e3d6000fd5b505050506040513d601f19601f82011682018060405250810190610deb9190611dd8565b905060008111610e30576040517f08c379a0000000000000000000000000000000000000000000000000000000008152600401610e27906128de565b60405180910390fd5b610e9b7f0000000000000000000000000000000000000000000000000000000000000000827f000000000000000000000000000000000000000000000000000000000000000073ffffffffffffffffffffffffffffffffffffffff166113c69092919063ffffffff16565b6000600167ffffffffffffffff811115610eb857610eb7611e82565b5b604051908082528060200260200182016040528015610ef157816020015b610ede611af6565b815260200190600190039081610ed65790505b50905060405180606001604052807f000000000000000000000000000000000000000000000000000000000000000073ffffffffffffffffffffffffffffffffffffffff1681526020017f000000000000000000000000000000000000000000000000000000000000000073ffffffffffffffffffffffffffffffffffffffff1681526020016000151581525081600081518110610f9257610f91611eb1565b5b60200260200101819052506000610fa883610c10565b905060607f000000000000000000000000000000000000000000000000000000000000000073ffffffffffffffffffffffffffffffffffffffff1663f41766d88584863061038442610ffa9190611f0f565b6040518663ffffffff1660e01b815260040161101a959493929190612052565b6000604051808303816000875af192505050801561105b57506040513d6000823e3d601f19601f8201168201806040525081019061105891906121d6565b60015b61111f5761106761222c565b806308c379a0036110e2575061107b61224e565b8061108657506110e4565b80604051602001611097919061239b565b6040516020818303038152906040526040517f08c379a00000000000000000000000000000000000000000000000000000000081526004016110d991906123f6565b60405180910390fd5b505b6040517f08c379a000000000000000000000000000000000000000000000000000000000815260040161111690612464565b60405180910390fd5b809150506000815111611167576040517f08c379a000000000000000000000000000000000000000000000000000000000815260040161115e906124d0565b60405180910390fd5b6000816001835161117891906124f0565b8151811061118957611188611eb1565b5b60200260200101519050828110156111d6576040517f08c379a00000000000000000000000000000000000000000000000000000000081526004016111cd90612570565b60405180910390fd5b7f7dea98129600aa079abdbf013a4645677f6f67cca2c7289880216b09c5f49e4c8582604051611207929190612590565b60405180910390a15050505050565b61121e61129c565b600073ffffffffffffffffffffffffffffffffffffffff168173ffffffffffffffffffffffffffffffffffffffff16036112905760006040517f1e4fbdf70000000000000000000000000000000000000000000000000000000081526004016112879190611ce2565b60405180910390fd5b61129981611462565b50565b6112a461168a565b73ffffffffffffffffffffffffffffffffffffffff166112c26109ba565b73ffffffffffffffffffffffffffffffffffffffff1614611321576112e561168a565b6040517f118cdaa70000000000000000000000000000000000000000000000000000000081526004016113189190611ce2565b60405180910390fd5b565b61132b611692565b60008060146101000a81548160ff0219169083151502179055507f5db9ee0a495bf2e6ff9c91a7834c1ba4fdd244a5e8aa4e537bd38aeae4b073aa61136e61168a565b60405161137b9190611ce2565b60405180910390a1565b61138d610315565b156113c4576040517fd93c066500000000000000000000000000000000000000000000000000000000815260040160405180910390fd5b565b60008373ffffffffffffffffffffffffffffffffffffffff1663dd62ed3e30856040518363ffffffff1660e01b81526004016114039291906128fe565b602060405180830381865afa158015611420573d6000803e3d6000fd5b505050506040513d601f19601f820116820180604052508101906114449190611dd8565b905061145c848484846114579190611f0f565b6116d2565b50505050565b60008060009054906101000a900473ffffffffffffffffffffffffffffffffffffffff169050816000806101000a81548173ffffffffffffffffffffffffffffffffffffffff021916908373ffffffffffffffffffffffffffffffffffffffff1602179055508173ffffffffffffffffffffffffffffffffffffffff168173ffffffffffffffffffffffffffffffffffffffff167f8be0079c531659141344cd1fd0a4f28419497f9722a3daafe3b4186f6b6457e060405160405180910390a35050565b61152e611385565b6001600060146101000a81548160ff0219169083151502179055507f62e78cea01bee320cd4e420270b5ea74000d11b0c9f74754ebdbfc544b05a25861157261168a565b60405161157f9190611ce2565b60405180910390a1565b611603838473ffffffffffffffffffffffffffffffffffffffff1663a9059cbb85856040516024016115bc929190612927565b604051602081830303815290604052915060e01b6020820180517bffffffffffffffffffffffffffffffffffffffffffffffffffffffff83818316178352505050506117e1565b505050565b611684848573ffffffffffffffffffffffffffffffffffffffff166323b872dd86868660405160240161163d93929190612950565b604051602081830303815290604052915060e01b6020820180517bffffffffffffffffffffffffffffffffffffffffffffffffffffffff83818316178352505050506117e1565b50505050565b600033905090565b61169a610315565b6116d0576040517f8dfc202b00000000000000000000000000000000000000000000000000000000815260040160405180910390fd5b565b60008373ffffffffffffffffffffffffffffffffffffffff1663095ea7b38484604051602401611703929190612927565b604051602081830303815290604052915060e01b6020820180517bffffffffffffffffffffffffffffffffffffffffffffffffffffffff838183161783525050505090506117518482611878565b6117db576117d0848573ffffffffffffffffffffffffffffffffffffffff1663095ea7b38660006040516024016117899291906129c2565b604051602081830303815290604052915060e01b6020820180517bffffffffffffffffffffffffffffffffffffffffffffffffffffffff83818316178352505050506117e1565b6117da84826117e1565b5b50505050565b600061180c828473ffffffffffffffffffffffffffffffffffffffff1661193f90919063ffffffff16565b9050600081511415801561183157508080602001905181019061182f9190612a17565b155b1561187357826040517f5274afe700000000000000000000000000000000000000000000000000000000815260040161186a9190611ce2565b60405180910390fd5b505050565b60008060008473ffffffffffffffffffffffffffffffffffffffff16846040516118a29190612a8b565b6000604051808303816000865af19150503d80600081146118df576040519150601f19603f3d011682016040523d82523d6000602084013e6118e4565b606091505b509150915081801561191257506000815114806119115750808060200190518101906119109190612a17565b5b5b8015611935575060008573ffffffffffffffffffffffffffffffffffffffff163b115b9250505092915050565b606061194d83836000611955565b905092915050565b60608147101561199c57306040517fcd7860590000000000000000000000000000000000000000000000000000000081526004016119939190611ce2565b60405180910390fd5b6000808573ffffffffffffffffffffffffffffffffffffffff1684866040516119c59190612a8b565b60006040518083038185875af1925050503d8060008114611a02576040519150601f19603f3d011682016040523d82523d6000602084013e611a07565b606091505b5091509150611a17868383611a22565b925050509392505050565b606082611a3757611a3282611ab1565b611aa9565b60008251148015611a5f575060008473ffffffffffffffffffffffffffffffffffffffff163b145b15611aa157836040517f9996b315000000000000000000000000000000000000000000000000000000008152600401611a989190611ce2565b60405180910390fd5b819050611aaa565b5b9392505050565b600081511115611ac45780518082602001fd5b6040517f1425ea4200000000000000000000000000000000000000000000000000000000815260040160405180910390fd5b6040518060600160405280600073ffffffffffffffffffffffffffffffffffffffff168152602001600073ffffffffffffffffffffffffffffffffffffffff1681526020016000151581525090565b600073ffffffffffffffffffffffffffffffffffffffff82169050919050565b6000819050919050565b6000611b8a611b85611b8084611b45565b611b65565b611b45565b9050919050565b6000611b9c82611b6f565b9050919050565b6000611bae82611b91565b9050919050565b611bbe81611ba3565b82525050565b6000602082019050611bd96000830184611bb5565b92915050565b6000611bea82611b91565b9050919050565b611bfa81611bdf565b82525050565b6000602082019050611c156000830184611bf1565b92915050565b6000819050919050565b611c2e81611c1b565b82525050565b6000602082019050611c496000830184611c25565b92915050565b60008115159050919050565b611c6481611c4f565b82525050565b6000602082019050611c7f6000830184611c5b565b92915050565b6000611c9082611b91565b9050919050565b611ca081611c85565b82525050565b6000602082019050611cbb6000830184611c97565b92915050565b6000611ccc82611b45565b9050919050565b611cdc81611cc1565b82525050565b6000602082019050611cf76000830184611cd3565b92915050565b6000604051905090565b600080fd5b600080fd5b611d1a81611c1b565b8114611d2557600080fd5b50565b600081359050611d3781611d11565b92915050565b600060208284031215611d5357611d52611d07565b5b6000611d6184828501611d28565b91505092915050565b611d7381611cc1565b8114611d7e57600080fd5b50565b600081359050611d9081611d6a565b92915050565b600060208284031215611dac57611dab611d07565b5b6000611dba84828501611d81565b91505092915050565b600081519050611dd281611d11565b92915050565b600060208284031215611dee57611ded611d07565b5b6000611dfc84828501611dc3565b91505092915050565b600082825260208201905092915050565b7f4e6f205745544820746f20737761700000000000000000000000000000000000600082015250565b6000611e4c600f83611e05565b9150611e5782611e16565b602082019050919050565b60006020820190508181036000830152611e7b81611e3f565b9050919050565b7f4e487b7100000000000000000000000000000000000000000000000000000000600052604160045260246000fd5b7f4e487b7100000000000000000000000000000000000000000000000000000000600052603260045260246000fd5b7f4e487b7100000000000000000000000000000000000000000000000000000000600052601160045260246000fd5b6000611f1a82611c1b565b9150611f2583611c1b565b9250828201905080821115611f3d57611f3c611ee0565b5b92915050565b600081519050919050565b600082825260208201905092915050565b6000819050602082019050919050565b611f7881611cc1565b82525050565b611f8781611c4f565b82525050565b606082016000820151611fa36000850182611f6f565b506020820151611fb66020850182611f6f565b506040820151611fc96040850182611f7e565b50505050565b6000611fdb8383611f8d565b60608301905092915050565b6000602082019050919050565b6000611fff82611f43565b6120098185611f4e565b935061201483611f5f565b8060005b8381101561204557815161202c8882611fcf565b975061203783611fe7565b925050600181019050612018565b5085935050505092915050565b600060a0820190506120676000830188611c25565b6120746020830187611c25565b81810360408301526120868186611ff4565b90506120956060830185611cd3565b6120a26080830184611c25565b9695505050505050565b600080fd5b6000601f19601f8301169050919050565b6120cb826120b1565b810181811067ffffffffffffffff821117156120ea576120e9611e82565b5b80604052505050565b60006120fd611cfd565b905061210982826120c2565b919050565b600067ffffffffffffffff82111561212957612128611e82565b5b602082029050602081019050919050565b600080fd5b600061215261214d8461210e565b6120f3565b905080838252602082019050602084028301858111156121755761217461213a565b5b835b8181101561219e578061218a8882611dc3565b845260208401935050602081019050612177565b5050509392505050565b600082601f8301126121bd576121bc6120ac565b5b81516121cd84826020860161213f565b91505092915050565b6000602082840312156121ec576121eb611d07565b5b600082015167ffffffffffffffff81111561220a57612209611d0c565b5b612216848285016121a8565b91505092915050565b60008160e01c9050919050565b600060033d111561224b5760046000803e61224860005161221f565b90505b90565b600060443d106122db57612260611cfd565b60043d036004823e80513d602482011167ffffffffffffffff821117156122885750506122db565b808201805167ffffffffffffffff8111156122a657505050506122db565b80602083010160043d0385018111156122c35750505050506122db565b6122d2826020018501866120c2565b82955050505050505b90565b600081905092915050565b7f4165726f64726f6d652073776170206661696c65643a20000000000000000000600082015250565b600061231f6017836122de565b915061232a826122e9565b601782019050919050565b600081519050919050565b60005b8381101561235e578082015181840152602081019050612343565b60008484015250505050565b600061237582612335565b61237f81856122de565b935061238f818560208601612340565b80840191505092915050565b60006123a682612312565b91506123b2828461236a565b915081905092915050565b60006123c882612335565b6123d28185611e05565b93506123e2818560208601612340565b6123eb816120b1565b840191505092915050565b6000602082019050818103600083015261241081846123bd565b905092915050565b7f4165726f64726f6d652073776170206661696c65640000000000000000000000600082015250565b600061244e601583611e05565b915061245982612418565b602082019050919050565b6000602082019050818103600083015261247d81612441565b9050919050565b7f537761702072657475726e6564206e6f20616d6f756e74730000000000000000600082015250565b60006124ba601883611e05565b91506124c582612484565b602082019050919050565b600060208201905081810360008301526124e9816124ad565b9050919050565b60006124fb82611c1b565b915061250683611c1b565b925082820390508181111561251e5761251d611ee0565b5b92915050565b7f536c69707061676520746f6c6572616e63652065786365656465640000000000600082015250565b600061255a601b83611e05565b915061256582612524565b602082019050919050565b600060208201905081810360008301526125898161254d565b9050919050565b60006040820190506125a56000830185611c25565b6125b26020830184611c25565b9392505050565b7f4e6f205553444320746f20776974686472617700000000000000000000000000600082015250565b60006125ef601383611e05565b91506125fa826125b9565b602082019050919050565b6000602082019050818103600083015261261e816125e2565b9050919050565b600069ffffffffffffffffffff82169050919050565b61264481612625565b811461264f57600080fd5b50565b6000815190506126618161263b565b92915050565b6000819050919050565b61267a81612667565b811461268557600080fd5b50565b60008151905061269781612671565b92915050565b600080600080600060a086880312156126b9576126b8611d07565b5b60006126c788828901612652565b95505060206126d888828901612688565b94505060406126e988828901611dc3565b93505060606126fa88828901611dc3565b925050608061270b88828901612652565b9150509295509295909350565b7f496e76616c6964204554482f5553442070726963650000000000000000000000600082015250565b600061274e601583611e05565b915061275982612718565b602082019050919050565b6000602082019050818103600083015261277d81612741565b9050919050565b600061278f82611c1b565b915061279a83611c1b565b92508282026127a881611c1b565b915082820484148315176127bf576127be611ee0565b5b5092915050565b7f4e487b7100000000000000000000000000000000000000000000000000000000600052601260045260246000fd5b600061280082611c1b565b915061280b83611c1b565b92508261281b5761281a6127c6565b5b828204905092915050565b7f416d6f756e74206d7573742062652067726561746572207468616e2030000000600082015250565b600061285c601d83611e05565b915061286782612826565b602082019050919050565b6000602082019050818103600083015261288b8161284f565b9050919050565b7f4e6f205553444320746f20737761700000000000000000000000000000000000600082015250565b60006128c8600f83611e05565b91506128d382612892565b602082019050919050565b600060208201905081810360008301526128f7816128bb565b9050919050565b60006040820190506129136000830185611cd3565b6129206020830184611cd3565b9392505050565b600060408201905061293c6000830185611cd3565b6129496020830184611c25565b9392505050565b60006060820190506129656000830186611cd3565b6129726020830185611cd3565b61297f6040830184611c25565b949350505050565b6000819050919050565b60006129ac6129a76129a284612987565b611b65565b611c1b565b9050919050565b6129bc81612991565b82525050565b60006040820190506129d76000830185611cd3565b6129e460208301846129b3565b9392505050565b6129f481611c4f565b81146129ff57600080fd5b50565b600081519050612a11816129eb565b92915050565b600060208284031215612a2d57612a2c611d07565b5b6000612a3b84828501612a02565b91505092915050565b600081519050919050565b600081905092915050565b6000612a6582612a44565b612a6f8185612a4f565b9350612a7f818560208601612340565b80840191505092915050565b6000612a978284612a5a565b91508190509291505056fea2646970667358221220a693ab37bd58619ed9f9ee5d80f42c3a7a4eac669f4f0b9ecef2c8beb1d0085164736f6c63430008180033",
  "linkReferences": {},
  "deployedLinkReferences": {}
}